{
  "contractName": "Reentrancy",
  "abi": [
    {
      "constant": true,
      "inputs": [
        {
          "name": "",
          "type": "address"
        }
      ],
      "name": "balances",
      "outputs": [
        {
          "name": "",
          "type": "uint256"
        }
      ],
      "payable": false,
      "stateMutability": "view",
      "type": "function"
    },
    {
      "constant": true,
      "inputs": [],
      "name": "owner",
      "outputs": [
        {
          "name": "",
          "type": "address"
        }
      ],
      "payable": false,
      "stateMutability": "view",
      "type": "function"
    },
    {
      "inputs": [],
      "payable": false,
      "stateMutability": "nonpayable",
      "type": "constructor"
    },
    {
      "payable": true,
      "stateMutability": "payable",
      "type": "fallback"
    },
    {
      "constant": true,
      "inputs": [
        {
          "name": "addr",
          "type": "address"
        }
      ],
      "name": "balanceOf",
      "outputs": [
        {
          "name": "",
          "type": "uint256"
        }
      ],
      "payable": false,
      "stateMutability": "view",
      "type": "function"
    },
    {
      "constant": false,
      "inputs": [],
      "name": "withdraw",
      "outputs": [],
      "payable": false,
      "stateMutability": "nonpayable",
      "type": "function"
    },
    {
      "constant": false,
      "inputs": [],
      "name": "put",
      "outputs": [],
      "payable": true,
      "stateMutability": "payable",
      "type": "function"
    }
  ],
  "bytecode": "0x6080604052600060025534801561001557600080fd5b50336000806101000a81548173ffffffffffffffffffffffffffffffffffffffff021916908373ffffffffffffffffffffffffffffffffffffffff1602179055506103a0806100656000396000f30060806040526004361061006d576000357c0100000000000000000000000000000000000000000000000000000000900463ffffffff16806327e235e3146100bc5780633ccfd60b14610113578063549262ba1461012a57806370a08231146101345780638da5cb5b1461018b575b34600160003373ffffffffffffffffffffffffffffffffffffffff1673ffffffffffffffffffffffffffffffffffffffff16815260200190815260200160002060008282540192505081905550005b3480156100c857600080fd5b506100fd600480360381019080803573ffffffffffffffffffffffffffffffffffffffff1690602001909291905050506101e2565b6040518082815260200191505060405180910390f35b34801561011f57600080fd5b506101286101fa565b005b6101326102b7565b005b34801561014057600080fd5b50610175600480360381019080803573ffffffffffffffffffffffffffffffffffffffff169060200190929190505050610306565b6040518082815260200191505060405180910390f35b34801561019757600080fd5b506101a061034f565b604051808273ffffffffffffffffffffffffffffffffffffffff1673ffffffffffffffffffffffffffffffffffffffff16815260200191505060405180910390f35b60016020528060005260406000206000915090505481565b3373ffffffffffffffffffffffffffffffffffffffff16600160003373ffffffffffffffffffffffffffffffffffffffff1673ffffffffffffffffffffffffffffffffffffffff1681526020019081526020016000205460405160006040518083038185875af192505050151561027057600080fd5b6000600160003373ffffffffffffffffffffffffffffffffffffffff1673ffffffffffffffffffffffffffffffffffffffff16815260200190815260200160002081905550565b34600160003373ffffffffffffffffffffffffffffffffffffffff1673ffffffffffffffffffffffffffffffffffffffff16815260200190815260200160002060008282540192505081905550565b6000600160008373ffffffffffffffffffffffffffffffffffffffff1673ffffffffffffffffffffffffffffffffffffffff168152602001908152602001600020549050919050565b6000809054906101000a900473ffffffffffffffffffffffffffffffffffffffff16815600a165627a7a723058201473912a5f3dc38356a85b3b486224dba8a3ed83f494a80bd1f67a591efd33f60029",
  "source": "pragma solidity ^0.4.23;\n\n\ncontract Reentrancy {\n    address public owner;\n    mapping (address => uint256) public balances;\n\n    uint256 amountValue = 0;\n\n    constructor() public {\n        owner = msg.sender;\n    }\n\n    function balanceOf(address addr) public view returns(uint256) {\n        return balances[addr];\n    }\n\n    function withdraw() public {\n        // At this point, the caller's code is executed, and can call withdraw again\n        require(msg.sender.call.value(balances[msg.sender])()); \n        balances[msg.sender] = 0;\n    }\n\n    function put() public payable {\n        balances[msg.sender] += msg.value;\n    }\n\n    function () external payable {\n        balances[msg.sender] += msg.value;\n    }\n}\n",
  "sourcePath": "D:\\solidity\\solidity-note\\notes\\attacks\\example01\\contracts\\Reentrancy.sol",
  "compiler": {
    "name": "solc",
    "version": "0.4.24+commit.e67f0147.Emscripten.clang"
  },
  "schemaVersion": "2.0.0",
  "updatedAt": "2018-06-07T10:06:18.440Z"
}